:100000000A128A1112280234FE00030EF0000408BE
:10001000F1000A08F200831203137F08F3000A12AA
:100020008A153D2F0A128A1115280A128A110320F7
:10003000ED0083160313D101D20183120313DE01F5
:10004000DF01E001E101E201E301E401E501E60194
:10005000E701E801E901EA01EB01EC01F701F80130
:10006000F90183010A128A1135280A128A15062716
:100070000A128A110A128A1521270A128A110A12F3
:100080008A15C0260A128A110A128A1595260A12A2
:100090008A110A128A1599260A128A110A308312C5
:1000A0000313A3000030A4000A128A1160270A1269
:1000B0008A1183120313DD005D0883160313D30036
:1000C00023305302031C68284C305302031C6E2952
:1000D0003C3083120313DD005D0883160313D30045
:1000E0006E290A128A15ED260A128A110A128A1539
:1000F00096270A128A11831203136803031D8E28A0
:100100008B120A128A15AA260A128A110230831249
:100110000313DD005D08ED00E8016E296A03031D8D
:100120006903031DA028ED01ED0A0030E100003055
:10013000E0000030DF000030DE00EA01E9016E2956
:100140000A128A11D1240A128A1183160313520843
:100150000A128A1171260A128A113A290A128A157C
:1001600096270A128A11831203136A03031DDC28DF
:100170006908031DDC284B30831603135302031850
:10018000C4285308053EC9284B305302031CD0280D
:100190004B3083120313DD005D0883160313D30075
:1001A000003083120313E1000030E0000030DF0074
:1001B0000030DE00EA0102296A08031D02296903F2
:1001C000031D02292430831603135302031CEB285A
:1001D0005308FB3EF028243053020318F72823303D
:1001E00083120313DD005D0883160313D300003070
:1001F00083120313E1000030E0000030DF00003024
:10020000DE00E9016108031D11296008031D1129A1
:100210005F08031D112989305E02031D0F29031C8D
:100220002D29ED010A30A8000030A9008316031320
:10023000530883120313DD005D08AA000A128A1115
:1002400017260A128A11003083120313E1000030CE
:10025000E0000030DF000030DE0083160313530897
:100260000A128A1171260A128A110A128A11D124DD
:100270000A128A11831203136508031D4B296408AF
:10028000031D4B296308031D4B2903306202031D24
:100290004929031C6E290A128A117C210A128A112B
:1002A000003083120313E5000030E4000030E30067
:1002B0000030E2006E290A128A15ED260A128A1110
:1002C000831203136803031D6929ED018B161F14A4
:1002D000E8010A128A15ED260A128A118312031305
:1002E0006D08003A03197128013A0319AE28033A40
:1002F00003195B296E296E2983160313D001003080
:10030000CB000030CA000030C9000030C800003007
:10031000CF000030CE000030CD000030CC005208BD
:1003200083120313D700D801D901DA01831603130E
:10033000510883120313DB0001300310DB0DFF3E75
:10034000031D9D2903105B0DA03E840057088313F5
:100350008000840A58088000840A59088000840AB2
:100360005A0880000130D700570883160313D107BD
:100370000A305106031D0800D101D0010A30500295
:100380000318F529500883120313D7000130031016
:10039000D70DFF3E031DC7290310570DA03E840053
:1003A000000883160313C807840A00080318000F07
:1003B000DA29DB29C907840A00080318000FE1299C
:1003C000E229CA07840A00080318000FE829E9296E
:1003D000CB07013083120313D7005708831603138A
:1003E000D0070A305002031CC2294B0883120313A2
:1003F000A800831603134A0883120313A700831669
:100400000313490883120313A60083160313480835
:1004100083120313A5000A128A1567270A128A118C
:10042000831203132508BC002608BD002708BE0060
:100430000030B9002030BA004130BB000A128A11E6
:100440008B230A128A11831203133908C9003A0850
:10045000CA003B08CB000A128A1143240A128A11EF
:10046000831203134C0883160313CF008312031364
:100470004B0883160313CE00831203134A08831616
:100480000313CD0083120313490883160313CC0012
:100490005308053E83120313D700003003180130C0
:1004A000D8005708D9005808DA000030DA1BFF30AE
:1004B000DB00DC00831603134F08831203135C0276
:1004C000031D782A831603134E08831203135B025D
:1004D000031D782A831603134D08831203135A024F
:1004E000031D782A831603134C0883120313590241
:1004F00003187F2A0715871206168612080083162E
:1005000003135308FB3E83120313D700FF30031875
:100510000030D8005708D9005808DA000030DA1B3C
:10052000FF30DB00DC005C08831603134F02031D61
:10053000AF2A831203135B08831603134E02031DB5
:10054000AF2A831203135A08831603134D02031DA7
:10055000AF2A831203135908831603134C0203189E
:100560000800831203130711871606128616080067
:10057000831203132908AF002A08B0002B08B1002A
:100580000310300D310DB2003208B3003308031DE3
:10059000D02A0030A9000030AA000030AB000800CB
:1005A0002C08AF002D08B0002E08B1000310300D4C
:1005B000310DB2003208B8003808031DE62A0030B9
:1005C000A9000030AA000030AB00080038087B3ECC
:1005D000AF002F08B3072908AF002A08B0002B0886
:1005E000B10010300310B10CB00CAF0CFF3E031D76
:1005F000F22A2F08B2003208B8002C08AF002D08EC
:10060000B0002E08B10010300310B10CB00CAF0CCC
:10061000FF3E031D042B2F08B2003208B8068030BD
:10062000AF002F08B805AA17AD17FF30AC05FF3093
:10063000AD050030AE050030B4000030B50000302C
:10064000B6000730AF002F08B700291C352B2C0847
:10065000B4072D08031103182D0A031DB5072E0832
:10066000031103182E0A031DB60701300310AB0C4B
:10067000AA0CA90CFF3E031D362B01300310AC0D54
:10068000AD0DAE0DFF3E031D3E2B0130B702031D25
:10069000252B0930AF002F08B700291C5D2B2C0833
:1006A000B4072D08031103182D0A031DB5072E08E2
:1006B000031103182E0A031DB60701300310AB0CFB
:1006C000AA0CA90CFF3E031D5E2B01300310B60CD3
:1006D000B50CB40CFF3E031D662B0130B702031DA1
:1006E0004D2B3408A0003508A1003608A2003308BD
:1006F000AF002F08A3003808B0003008A4000A1289
:100700008A114E25831203132008A9002108AA008C
:100710002208AB000800831203133C08BF003D0809
:10072000C0003E08C1000310400D410DC200420848
:10073000C7004708031DA32B0030B9000030BA00E2
:100740000030BB0008003908BF003A08C0003B0871
:10075000C1000310400D410DC2004208C800480806
:10076000031DB92B0030B9000030BA000030BB00C7
:1007700008000030C4000030C5000030C6008930D9
:100780004807BF003F08C7023C08BF003D08C00043
:100790003E08C10010300310C10CC00CBF0CFF3E5E
:1007A000031DCB2B3F08C2004208C8003908BF0018
:1007B0003A08C0003B08C10010300310C10CC00C47
:1007C000BF0CFF3E031DDD2B3F08C2004208C806D8
:1007D0008030BF003F08C805BD17FF30BC05FF30A3
:1007E000BD050030BE05BA17FF30B905FF30BA05A8
:1007F0000030BB051830BF003F08C30001300310B4
:10080000C40DC50DC60DFF3E031DFF2B3B083E0268
:10081000031D102C3A083D02031D102C39083C0220
:10082000031C1D2C3908BC023A08031C3A0FBD02F8
:100830003B08031C3B0ABE02441401300310BC0DEC
:10084000BD0DBE0DFF3E031D1E2C0130C302031D56
:10085000FE2B4408A0004508A1004608A200470856
:10086000BF003F08A3004808C0004008A4000A12C7
:100870008A114E25831203132008B9002108BA00FB
:100880002208BB000800831203134908CD004A0860
:10089000CE004B08CF0003104E0D4F0DD000500876
:1008A000D6005608031D5D2C0030CC000030CB0074
:1008B0000030CA000030C90008004908CD004A08CD
:1008C000CE004B08CF0017300310CF0CCE0CCD0C50
:1008D000FF3E031D642C4D08D0005008D100CA17FC
:1008E000FF30C905FF30CA050030CB054908D200EA
:1008F0004A08D3004B08D400D5018E30D602D61F4B
:100900009F2C5608803A8F3E03188F2C0030CC0065
:100910000030CB000030CA000030C90008000130B0
:100920000310D50CD40CD30CD20CFF3E031D902C1D
:100930000130CD004D08D6070319BA2C8F2C183082
:100940005602031CB72C0030CC000030CB00003026
:10095000CA000030C90008000130CD000310D20DDC
:10096000D30DD40DD50DCD0BAE2C0130D6025608CB
:10097000031DAC2C51080319C82CD209D309D40982
:10098000D509D20A0319D30A0319D40A0319D50ABF
:100990005508CC005408CB005308CA005208C900BF
:1009A00008000A128A15B4260A128A1175088312E1
:1009B0000313EC007408EB006C08A6006B08A5009C
:1009C0000A128A11E8270A128A11831203132508D2
:1009D000AC002608AD002708AE004030A9009C30CE
:1009E000AA004530AB000A128A11B8220A128A11F5
:1009F000831203132908BC002A08BD002B08BE007F
:100A0000C030B9007F30BA004430BB000A128A11EE
:100A10008B230A128A11831203133908C9003A087A
:100A2000CA003B08CB000A128A1143240A128A1119
:100A3000831203134A08E7004908E6006708A60086
:100A40006608A5000A128A11E8270A128A11831281
:100A500003132508BC002608BD002708BE0000308F
:100A6000B9002030BA004130BB000A128A118B2332
:100A70000A128A11831203133908C9003A08CA00FE
:100A80003B08CB000A128A1143248312031349083E
:100A9000D700570883160313D200080083120313EC
:100AA00023080319582D220821042004031D6B2D4F
:100AB0000030A0000030A1000030A200080001308A
:100AC000F4007408A30701300310A20CA10CA00CC1
:100AD000FF3E031D642DFE3022050319862D5F2D78
:100AE0000130F4007408A3070130A0070030031898
:100AF0000130A107003003180130A20701300310B4
:100B0000A20CA10CA00CFF3E031D7F2DFF3022057F
:100B10000319952D702D0130A30201300310A00D93
:100B2000A10DA20DFF3E031D8E2DA11B9B2D02309A
:100B3000230203188B2D2318A32DFF30A0057F302F
:100B4000A105FF30A2050310A30C2308F400F50152
:100B5000F60110300310F40DF50DF60DFF3E031DE8
:100B6000AA2D7408A0047508A1047608A20424081C
:100B700003190800A217080083120313A501A11F7F
:100B8000C82DA009A109A00A0319A10AA501A50A57
:100B9000A31FD32DA209A309A20A0319A30A013096
:100BA000F4007408A506A601A70120082104031972
:100BB0000A2EA401A40AA11BE92D01300310A00DE7
:100BC000A10DFF3E031DDE2D0130F4007408A407C3
:100BD000DB2D01300310A60DA70DFF3E031DEA2DEE
:100BE00021082302031DF62D20082202031CFF2DDD
:100BF0002008A2022108031CA303A302261401302B
:100C00000310A10CA00CFF3E031D002E0130A40216
:100C1000031DE92D25080319122EA609A709A60A06
:100C20000319A70A2708A1002608A00008008312BC
:100C300003132A08AB00AC012B08B0002C08B1004C
:100C400029080139AB002B08AD002808AB002B08A0
:100C5000AE00AF010A128A15CD260A128A1183123C
:100C600003132D080319362EA230372EA0300A1296
:100C70008A11A9270A128A11831203132E080A1255
:100C80008A11A9270A128A118312031330080A1243
:100C90008A11A9270A128A110A128A15DD260A1258
:100CA0008A11013083120313AB002B08AF07290808
:100CB000A4002808A3000A128A1160270A128A11C8
:100CC00083120313AB00AC0131082C06031D6A2EFE
:100CD00030082B06031908000A302F0203180800F9
:100CE0002A2E83120313AA00851505120A30A000CC
:100CF0000030A1002A08A800A9012808A20029089C
:100D0000A3000A128A11BC250A128A118312031346
:100D100020080A128A15C7270A128A1183120313A0
:100D20008800083083120313A900C930A800A80B5B
:100D3000972EA90B972E83120313851105160A30DF
:100D4000A0000030A1002A08A800A9012808A200DC
:100D50002908A3000A128A1113270A128A11831282
:100D6000031320080A128A15C7270A128A11831250
:100D700003138800063083120313A9002F30A80044
:100D8000A80BC02EA90BC02EC52E0800831203137A
:100D9000A000A10187118316031307168312031302
:100DA0000716A201083022020318F82E87150A122E
:100DB0008A15A1260A128A1183120313070E01391C
:100DC000F4002203FF3A073E013EE82E0310F40D23
:100DD000FF3E031DE62E7408F5007508A104871177
:100DE0000130F4007408A20708302202031CD62E3A
:100DF0008316031307128312031320080319022F0B
:100E00000712032F07160A128A15A1260A128A1141
:100E10008312031387150A128A15A126831203135E
:100E2000871121080800F60183120313A31F1F2F47
:100E3000A209A309A20A0319A30AF601F60AA11F2F
:100E4000262FA009A109A00A0319A10A200821043C
:100E50000319532FF501F50AA11B3A2F0130031096
:100E6000A00DA10DFF3E031D2F2F0130F4007408CB
:100E7000F5072C2F21082302031D402F20082202F2
:100E8000031C482F2008A2022108031CA303A3026D
:100E900001300310A10CA00CFF3E031D492F0130AF
:100EA000F502031D3A2F760803195B2FA209A30947
:100EB000A20A0319A30A2308A1002208A00008001F
:100EC0008312031324080139F6007608A7002308CB
:100ED000F6007608A6000A128A15CD260A128A1193
:100EE0008312031327080319772FA230782FA0301D
:100EF0000A128A11A9270A128A11831203132608DB
:100F00000A128A11A9270A128A110A128A15CD26F5
:100F10000A128A118312031327080319912FA33091
:100F2000922FA1300A128A11A9270A128A110130C0
:100F30000A128A11C6260A128A11F600760883124E
:100F40000313A5000A128A15DD2683120313250850
:100F5000080083120313A0008711A10108302102A9
:100F60000318D82F2008F4002103FF3A073E013E62
:100F7000BB2F0310F40CFF3E031DB92F7408013979
:100F8000F500F50E07087506EF3975068700871519
:100F90000A128A15A1260A128A11831203138711D5
:100FA0000130F4007408A10708302102031CB22F9D
:100FB00007160A128A15A1260A128A118312031330
:100FC00087150A128A15A1268312031387110800B8
:100FD000831203132508A0002608A100A2018E3069
:100FE000A8002808A300A4010A128A114E25831222
:100FF00003132008A5002108A6002208A700080066
:101D2A00831603138801080083160313071283120C
:101D3A0003138715071608000000000000000000C2
:101D4A000000000000000000080083120313851140
:101D5A00051206128612071187121F100800831235
:101D6A0003131F19B42E1F151E08F500831603133B
:101D7A001E08F40008008B170B178B160B1183161D
:101D8A000313811201128111011481140115080033
:101D9A0083120313871507160A128A15A1260A1237
:101DAA008A158312031307120A128A15A12608003C
:101DBA0083120313871507120A128A15A1260A121B
:101DCA008A158312031307160A128A15A126080018
:101DDA00FD2E83120313061C0800F901F90A0800F4
:101DEA008312031306180800F901E801E80A08003B
:101DFA007908003A0319EE2E013A0319F52E052F38
:101E0A000800831603130515831203131F139F1764
:101E1A00831603131F13831203139F111F169F1296
:101E2A00831603139F171F109F101F119F118312F0
:101E3A0003131F151F1408008316031385110512B7
:101E4A00051506148614061506120613861386123D
:101E5A0007118712871107128312031387150716B2
:101E6A00061086100611061286120613861308003B
:101E7A000B1D5C2F0B110130E207003003180130F3
:101E8A00E307003003180130E4070030031801307B
:101E9A00E5070130DE07003003180130DF070030A4
:101EAA0003180130E007003003180130E107730816
:101EBA00FF0072088A0071088400700E8300FE0E0B
:101ECA007E0E09008E3083120313A9002908AA0086
:101EDA00FF30280503197F2F01300310A80CA70C27
:101EEA00A60CA50CFF3E031D722F0130A90029087C
:101EFA00AA076D2F2508A0002608A1002708A2001E
:101F0A002A08A9002908A300A4010A128A114E2549
:101F1A00831203132008A5002108A6002208A7009F
:101F2A000800A62F83120313861CBE2FF801F80A95
:101F3A00BE2F831203138618BE2FF801EA01EA0A9C
:101F4A00BE2F7808003A0319972F013A03199E2FDA
:101F5A00BE2FBE2F83120313061D0800F701F70ACE
:101F6A0008008312031306190800F701E901E90AB8
:101F7A0008007708003A0319AF2F013A0319B62F60
:101F8A00C62F0800F400DF2F3F3008000630080093
:101F9A005B3008004F300800663008006D300800DA
:101FAA007D300800073008007F3008006F300800D5
:101FBA00003008007408003A0319C92F013A0319BE
:101FCA00CB2F033A0319CD2F013A0319CF2F073A22
:101FDA000319D12F013A0319D32F033A0319D52F25
:101FEA00013A0319D72F0F3A0319D92F013A0319C6
:061FFA00DB2FDD2F0800C3
:02400E003A3F37
:00000001FF
